{
  "contractName": "AstroVote_Base",
  "abi": [
    {
      "constant": true,
      "inputs": [],
      "name": "artistsCount",
      "outputs": [
        {
          "name": "",
          "type": "uint256"
        }
      ],
      "payable": false,
      "stateMutability": "view",
      "type": "function"
    },
    {
      "constant": true,
      "inputs": [
        {
          "name": "",
          "type": "address"
        }
      ],
      "name": "voters",
      "outputs": [
        {
          "name": "",
          "type": "bool"
        }
      ],
      "payable": false,
      "stateMutability": "view",
      "type": "function"
    },
    {
      "constant": true,
      "inputs": [
        {
          "name": "",
          "type": "uint256"
        }
      ],
      "name": "artists",
      "outputs": [
        {
          "name": "id",
          "type": "uint256"
        },
        {
          "name": "name",
          "type": "string"
        },
        {
          "name": "voteCount",
          "type": "uint256"
        }
      ],
      "payable": false,
      "stateMutability": "view",
      "type": "function"
    },
    {
      "inputs": [],
      "payable": false,
      "stateMutability": "nonpayable",
      "type": "constructor"
    },
    {
      "constant": false,
      "inputs": [
        {
          "name": "_artistId",
          "type": "uint256"
        }
      ],
      "name": "vote",
      "outputs": [],
      "payable": false,
      "stateMutability": "nonpayable",
      "type": "function"
    }
  ],
  "bytecode": "0x608060405234801561001057600080fd5b5061005e6040805190810160405280600881526020017f41727469737420310000000000000000000000000000000000000000000000008152506100fd640100000000026401000000009004565b6100ab6040805190810160405280600881526020017f41727469737420320000000000000000000000000000000000000000000000008152506100fd640100000000026401000000009004565b6100f86040805190810160405280600881526020017f41727469737420330000000000000000000000000000000000000000000000008152506100fd640100000000026401000000009004565b61021f565b6002600081548092919060010191905055506060604051908101604052806002548152602001828152602001600081525060016000600254815260200190815260200160002060008201518160000155602082015181600101908051906020019061016992919061017a565b506040820151816002015590505050565b828054600181600116156101000203166002900490600052602060002090601f016020900481019282601f106101bb57805160ff19168380011785556101e9565b828001600101855582156101e9579182015b828111156101e85782518255916020019190600101906101cd565b5b5090506101f691906101fa565b5090565b61021c91905b80821115610218576000816000905550600101610200565b5090565b90565b6103d78061022e6000396000f300608060405260043610610062576000357c0100000000000000000000000000000000000000000000000000000000900463ffffffff1680630121b93f146100675780637adc1fec14610094578063a3ec138d146100bf578063cd7e10c11461011a575b600080fd5b34801561007357600080fd5b50610092600480360381019080803590602001909291905050506101ce565b005b3480156100a057600080fd5b506100a96102c3565b6040518082815260200191505060405180910390f35b3480156100cb57600080fd5b50610100600480360381019080803573ffffffffffffffffffffffffffffffffffffffff1690602001909291905050506102c9565b604051808215151515815260200191505060405180910390f35b34801561012657600080fd5b50610145600480360381019080803590602001909291905050506102e9565b6040518084815260200180602001838152602001828103825284818151815260200191508051906020019080838360005b83811015610191578082015181840152602081019050610176565b50505050905090810190601f1680156101be5780820380516001836020036101000a031916815260200191505b5094505050505060405180910390f35b6000803373ffffffffffffffffffffffffffffffffffffffff1673ffffffffffffffffffffffffffffffffffffffff16815260200190815260200160002060009054906101000a900460ff1615151561022657600080fd5b60008111801561023857506002548111155b151561024357600080fd5b60016000803373ffffffffffffffffffffffffffffffffffffffff1673ffffffffffffffffffffffffffffffffffffffff16815260200190815260200160002060006101000a81548160ff021916908315150217905550600160008281526020019081526020016000206002016000815480929190600101919050555050565b60025481565b60006020528060005260406000206000915054906101000a900460ff1681565b6001602052806000526040600020600091509050806000015490806001018054600181600116156101000203166002900480601f01602080910402602001604051908101604052809291908181526020018280546001816001161561010002031660029004801561039b5780601f106103705761010080835404028352916020019161039b565b820191906000526020600020905b81548152906001019060200180831161037e57829003601f168201915b50505050509080600201549050835600a165627a7a72305820dfd9fadd4cd4a1a8cc6d54324688bb0c1bbbe722a18b42b580b13eb522f97e7f0029",
  "source": "pragma solidity ^0.4.2;\n\ncontract AstroVote_Base\n{\n    //Model a artist\n    struct Artist\n    {\n      uint id;\n      string name;\n      uint voteCount;\n    }\n\n    // Store accounts that have voted\n    mapping(address => bool) public voters;\n\n    // Read.write artists\n    mapping (uint => Artist) public artists; // public to have a getter function\n\n    // Store artists count because we can't count an array\n    uint public artistsCount;\n\n    // Constructor\n    constructor () public\n    {\n        addArtist(\"Artist 1\");\n        addArtist(\"Artist 2\");\n        addArtist(\"Artist 3\");\n    }\n\n    function addArtist (string _name) private  //private beacause we don't want anyone else to add artist // only the contract will do\n    {\n      artistsCount ++;\n      artists[artistsCount] = Artist(artistsCount, _name, 0);\n    }\n\n    function vote (uint _artistId) public {\n        // require that they haven't voted before\n        require(!voters[msg.sender]);\n\n        // require a valid artist\n        require(_artistId > 0 && _artistId <= artistsCount);\n\n        // record that voter has voted\n        voters[msg.sender] = true;\n\n        // update artist vote Count\n        artists[_artistId].voteCount ++;\n    }\n}\n",
  "sourcePath": "C:\\Users\\Stip\\Dropbox\\TEACHER\\Dauphine_TP\\Support\\TP Ethereum\\AstroVote_Base\\contracts\\AstroVote_Base.sol",
  "compiler": {
    "name": "solc",
    "version": "0.4.24+commit.e67f0147.Emscripten.clang"
  },
  "schemaVersion": "2.0.1",
  "updatedAt": "2020-05-28T10:39:54.546Z"
}